:020000040000FA
:100000000C9463000C948B000C948B000C948B006C
:100010000C948B000C948B000C948B000C942F038D
:100020000C948B000C948B000C948B000C948B0024
:100030000C948B000C948B000C948B000C948B0014
:100040000C948B030C948B000C948B000C948B0001
:100050000C948B000C948B000C948B000C948B00F4
:100060000C948B000C948B000000000024002700EF
:100070002A000000000023002600290000000008DC
:10008000000201000003040700000000000000005F
:10009000010204081020408001020408102001021F
:1000A0000408102000000000250028002B00040494
:1000B0000404040404040202020202020303030310
:1000C00003030200970511241FBECFEFD8E0DEBF67
:1000D000CDBF11E0A0E0B1E0EAE7FBE002C005908F
:1000E0000D92A438B107D9F721E0A4E8B1E001C02E
:1000F0001D92A63BB207E1F710E0C3E6D0E004C0D2
:100100002197FE010E94B505C236D107C9F70E94AA
:10011000D5030C94BB050C940000AF92BF92CF9214
:10012000DF92EF92FF920F931F93CF93DF936C01B7
:100130007B018B01040F151FEB015E01AE18BF0898
:10014000C017D10759F06991D601ED91FC9101904A
:10015000F081E02DC6010995892B79F7C501DF9162
:10016000CF911F910F91FF90EF90DF90CF90BF90B4
:10017000AF900895833081F028F4813099F0823077
:10018000A9F008958730A9F08830C9F08430B1F41F
:10019000809180008F7D03C0809180008F77809355
:1001A0008000089584B58F7784BD089584B58F7DD0
:1001B000FBCF8091B0008F778093B000089580913D
:1001C000B0008F7DF9CF1F93CF93DF93282F30E0BE
:1001D000F901E458FF4F8491F901E057FF4FD491A2
:1001E000F901E255FF4FC491CC23A9F0162F8111DC
:1001F0000E94BA00EC2FF0E0EE0FFF1FEC55FF4F0E
:10020000A591B4918FB7F894EC91111108C0D095D5
:10021000DE23DC938FBFDF91CF911F910895DE2BFA
:10022000F8CF9091000189130BC0E2ECF0E0E4916B
:100230009FEF90930001E13049F028F0E23061F047
:1002400060E00C94E30010926E00FACF90916F0082
:100250009D7F90936F00F4CF909170009D7F90935D
:10026000700091E09093B0009091B100987F9460FD
:100270009093B1001092B300E3CFCF93DF9390E05F
:10028000FC01E057FF4F249182559F4FFC01849160
:100290008823D1F090E0880F991FFC01E859FF4FA7
:1002A000A591B491FC01EC55FF4FC591D49161111A
:1002B0000EC09FB7F8948C91E22FE0958E238C931B
:1002C0002881E223E8839FBFDF91CF9108958FB704
:1002D000F894EC91E22BEC938FBFF6CF3FB7F894F4
:1002E0008091890190918A01A0918B01B0918C013C
:1002F00026B5A89B05C02F3F19F00196A11DB11D81
:100300003FBFBA2FA92F982F8827BC01CD01620FBC
:10031000711D811D911D42E0660F771F881F991F77
:100320004A95D1F708958F929F92AF92BF92CF9244
:10033000DF92EF92FF924B015C010E946E016B0114
:100340007C010E946E016C197D098E099F09683E2F
:10035000734081059105A8F321E0821A9108A10854
:10036000B10888EEC80E83E0D81EE11CF11C811490
:100370009104A104B10429F7FF90EF90DF90CF9092
:10038000BF90AF909F908F900895089590E080E087
:100390000895FC0101900020E9F73197AF01481B57
:1003A000590BBC018EE991E00C948D00CF93DF9343
:1003B000EC0160E08E810E94E30061E08E810E948A
:1003C000E30060E08E810E94E3008BE891E00197FA
:1003D000F1F7DF91CF910895CF92DF92EF92FF92E4
:1003E0000F931F93CF93DF936C017C0187E0E80E9E
:1003F000F11CD0E0C0E0062F10E0B8010C2E02C0C6
:10040000759567950A94E2F76170F70181917F0114
:100410000E94E3002196C430D10579F7C601DF912F
:10042000CF911F910F91FF90EF90DF90CF900C94A0
:10043000D601CF92DF92EF92FF920F931F93CF934B
:10044000DF93EC01F62E642F8C810E94E3008D81F6
:100450008F3F19F060E00E94E3000F2D10E08F85C0
:1004600084FF25C06E0187E0C80ED11CF12CE12C61
:10047000B8010E2C02C0759567950A94E2F7617079
:10048000F60181916F010E94E300FFEFEF1AFF0A6E
:1004900088E0E816F10461F7CE01DF91CF911F915A
:1004A0000F91FF90EF90DF90CF900C94D601B801A0
:1004B00084E0759567958A95E1F7CE010E94EC017D
:1004C0006F2DCE01DF91CF911F910F91FF90EF9093
:1004D000DF90CF900C94EC0140E0682F8EE991E022
:1004E0000C94190281E00E946C028BE39FE101975A
:1004F000F1F70895CF93DF93823029F49091AD0105
:1005000098609093AD018093B1011092B20180E4A4
:100510008093B30180E18093B40180E58093B501BD
:1005200061E08091A2010E943D018091A3018F3F73
:1005300019F061E00E943D0161E08091A4010E94F8
:100540003D01CEE9D1E09E012E5931408091AD01AF
:1005500084FD0BC084E090E021962817390744F40D
:1005600061E08E810E943D01EECF88E090E0F4CF03
:100570008BE39DE00197F1F760E08091A2010E947A
:10058000E30060E08091A4010E94E3008091A30158
:100590008F3F19F060E00E94E3008091AD0184FD7F
:1005A00034C063E08EE991E00E94EC01CBE4D6E434
:1005B000CE010197F1F763E08EE991E00E94EC0132
:1005C0002197F1F763E08EE991E00E94EC0183E569
:1005D00092E00197F1F762E08EE991E00E94EC0170
:1005E0008091AD0180620E946C0284E08093AE0134
:1005F0008CE00E946C020E94720282E08093AF0144
:1006000086E0DF91CF910C946C0280620E946C02B4
:100610008BE496E40197F1F78091AD0180620E942E
:100620006C0283E592E00197F1F78091AD01806261
:100630000E946C02D5CF9091B101891710F08FEF15
:10064000890FE82FF0E0E256FE4F848980680C9411
:100650006C0241E00E94190281E090E008951F922F
:100660000F920FB60F9211242F933F934F935F93E6
:100670006F937F938F939F93AF93BF93EF93FF936A
:100680008091920190919301A0919401B091950174
:10069000892B8A2B8B2BD1F190918D01E0918E01CA
:1006A000F0918F01808189278083809192019091C0
:1006B0009301A0919401B0919501181619061A069C
:1006C0001B069CF48091920190919301A09194015A
:1006D000B09195010197A109B1098093920190937E
:1006E0009301A0939401B0939501FF91EF91BF9175
:1006F000AF919F918F917F916F915F914F913F91BA
:100700002F910F900FBE0F901F90189580910001B0
:100710000E941101EACF1F920F920FB60F9211247F
:100720002F933F938F939F93AF93BF9380918501B6
:1007300090918601A0918701B09188013091840148
:1007400023E0230F2D3758F50196A11DB11D2093ED
:1007500084018093850190938601A0938701B093D3
:1007600088018091890190918A01A0918B01B091BB
:100770008C010196A11DB11D8093890190938A017E
:10078000A0938B01B0938C01BF91AF919F918F91FA
:100790003F912F910F900FBE0F901F90189526E854
:1007A000230F0296A11DB11DD2CF789484B582602B
:1007B00084BD84B5816084BD85B5826085BD85B505
:1007C000816085BD80916E00816080936E00109283
:1007D00081008091810082608093810080918100FE
:1007E000816080938100809180008160809380008F
:1007F0008091B10084608093B1008091B0008160ED
:100800008093B00080917A00846080937A00809118
:100810007A00826080937A0080917A008160809370
:100820007A0080917A00806880937A001092C100EB
:1008300060E089E00E943D0161E086E00E943D01A8
:1008400061E087E00E943D0161E08DE00E943D0192
:1008500082E00E947A020E94720280E00E941B03E2
:100860008DE091E00E94C90181E00E941B038FE1AD
:1008700091E00E94C90168EE73E080E090E00E9480
:1008800093010E94720259E9252E50E0352ECC24A6
:10089000CA946CE7D62E72ECE72E70E0F72EEBEBE5
:1008A0004E2EE0E05E2E0DE910E088248A94982C0C
:1008B000540140E0642E40E0742EE5E8F0E08491BD
:1008C000F101C491E7EBF0E0D491DD2309F409C113
:1008D00081110E94BA00ED2FF0E0EE0FFF1FEE58DD
:1008E000FF4FA591B4918C918C2309F4FAC080E05C
:1008F0000E941B038DE291E00E94C90181E00E94E9
:100900001B038FE391E00E94C90161E087E00E9430
:10091000E30060E086E00E94E300809100018D30FA
:1009200029F5F701C491C7FDBCC061E08DE00E94CC
:100930003D01CC2309F488C0C23009F099C08091F0
:10094000B100887F85608093B10089EF8093B30008
:100950008092920190929301A0929401B09295019D
:10096000809170008260809370009BC08F3F09F07F
:1009700098C08DE080930001F701C491CF3F09F446
:1009800090C0C13019F150F0C23009F43CC0C7FD2D
:1009900088C061E08DE00E943D01CECF14BC15BC43
:1009A00084B5826084BD85B5816085BDF201849186
:1009B000E82FF0E0EE0FFF1FEC55FF4F859194916B
:1009C000F801849180939101C0E0AFCF1092800034
:1009D00010928100809181008860809381008091D5
:1009E0008100816080938100F2018491E82FF0E022
:1009F000EE0FFF1FEC55FF4F85919491F801849104
:100A00008093900192CF1092B0001092B10080912B
:100A1000B00082608093B0008091B10081608093CB
:100A2000B100F2018491E82FF0E0EE0FFF1FEC55CA
:100A3000FF4F8591949190938F0180938E01F801DF
:100A4000849180938D0171CF85B5887F846085BD49
:100A50008CE787BD80929A0190929B01A0929C01A5
:100A6000B0929D0180916E00826080936E0019C0EB
:100A7000C13079F580918100887F81608093810009
:100A8000D0928900C092880080929601909297013E
:100A9000A0929801B092990180916F00826080933A
:100AA0006F0064EF71E080E090E00E9493018DE0C0
:100AB0000E94110164EF71E080E090E00E949301D8
:100AC0000E9472026114710409F4F7CE0E940000C2
:100AD000F0CEC23021F0C111E4CF8FEFBACF8FEF4B
:100AE00035CF61E086E00E94E30060E087E00E948D
:100AF000E30080E00E941B0381E591E00E94C901B0
:100B000081E00E941B0382E691E00E94C90164EF2C
:100B100071E080E090E00E9493010E94720280E008
:100B20000E941B0383E791E00E94C901C3CFEEE955
:100B3000F1E01382128285E091E0918380838CE062
:100B400084838FEF85838BE0868385E0878384E0D1
:100B5000808783E0818782E08287138614861586EA
:100B60001686178681E00C947A02EE0FFF1F05901F
:100B7000F491E02D0994F894FFCFFF0000000029C4
:100B8000038D00C601C50120534D4F4B4520444500
:100B900054454354494F4E200020202020205359D3
:100BA0005354454D20200020536D6F6B65204465E4
:100BB000746563746564212000202020416C657297
:100BC000742E2E2E2E212121202000202020204E88
:100BD0006F20536D6F6B6520202020002020202087
:100BE00044657465637465642E20202000202020F5
:0E0BF0002020205341464521202020202000B7
:107E0000112484B714BE81FFF0D085E080938100F7
:107E100082E08093C00088E18093C10086E0809377
:107E2000C20080E18093C4008EE0C9D0259A86E02C
:107E300020E33CEF91E0309385002093840096BBD3
:107E4000B09BFECF1D9AA8958150A9F7CC24DD24C4
:107E500088248394B5E0AB2EA1E19A2EF3E0BF2EE7
:107E6000A2D0813461F49FD0082FAFD0023811F036
:107E7000013811F484E001C083E08DD089C08234E0
:107E800011F484E103C0853419F485E0A6D080C0E4
:107E9000853579F488D0E82EFF2485D0082F10E0AE
:107EA000102F00270E291F29000F111F8ED06801E7
:107EB0006FC0863521F484E090D080E0DECF843638
:107EC00009F040C070D06FD0082F6DD080E0C81688
:107ED00080E7D80618F4F601B7BEE895C0E0D1E017
:107EE00062D089930C17E1F7F0E0CF16F0E7DF06D8
:107EF00018F0F601B7BEE89568D007B600FCFDCFD4
:107F0000A601A0E0B1E02C9130E011968C91119780
:107F100090E0982F8827822B932B1296FA010C0160
:107F200087BEE89511244E5F5F4FF1E0A038BF0790
:107F300051F7F601A7BEE89507B600FCFDCF97BE46
:107F4000E89526C08437B1F42ED02DD0F82E2BD052
:107F50003CD0F601EF2C8F010F5F1F4F84911BD097
:107F6000EA94F801C1F70894C11CD11CFA94CF0C13
:107F7000D11C0EC0853739F428D08EE10CD085E9AC
:107F80000AD08FE07ACF813511F488E018D01DD067
:107F900080E101D065CF982F8091C00085FFFCCF94
:107FA0009093C60008958091C00087FFFCCF809118
:107FB000C00084FD01C0A8958091C6000895E0E648
:107FC000F0E098E1908380830895EDDF803219F02E
:107FD00088E0F5DFFFCF84E1DECF1F93182FE3DFCA
:107FE0001150E9F7F2DF1F91089580E0E8DFEE27F6
:047FF000FF270994CA
:027FFE00040479
:00000001FF
